:020000021000EC
:10F0000014BE88E1809360001092600005C0424207
:10F010004242004141414100F0C11092CD008AE0DE
:10F020008093CC00E8ECF0E080818D7F808388E1E4
:10F030008093C90086E08093CA0008959091C8002B
:10F0400095FFFCCF8093CE0008958091C800881F63
:10F050008827881F08958091C80087FFFCCF809182
:10F06000CE0008958091C80087FF03C08091CE0034
:10F07000F9CF0895CF93DF93EC018991882319F09C
:10F080000E941EF8FACF0E941EF8DF91CF910895DA
:10F090001092C5008AE08093C400E0ECF0E080812B
:10F0A0008D7F808388E18093C10086E08093C200D9
:10F0B00008959091C00095FFFCCF8093C6000895FD
:10F0C0008091C000881F8827881F08958091C00004
:10F0D00087FFFCCF8091C60008958091C00087FF14
:10F0E00003C08091C600F9CF0895CF93DF93EC0160
:10F0F0008991882319F00E9459F8FACF0E9459F893
:10F10000DF91CF9108952FE088E190E00FB6F89459
:10F11000A895809360000FBE209360000E942BF89A
:10F12000882E912CA12CB12CB82CAA2499248824A7
:10F130000E942BF8D82F0E942BF8C82F0E942BF882
:10F14000AD2A882A9C2AA8950E942BF8C82ED12C7B
:10F15000E12CF12CFC2CEE24DD24CC240E942BF895
:10F16000D82F0E942BF8C82F0E942BF8ED2AC82A0E
:10F17000DC2AA895C80CD91CEA1CFB1C8C149D0425
:10F18000AE04BF0468F4ABBEF4018791A8950E9459
:10F190001EF8A8958FEF881A980AA80AB80AEECF29
:10F1A000FFCF8F929F92AF92BF92CF92DF92EF925A
:10F1B000FF92CF932FE088E190E00FB6F894A895E6
:10F1C000809360000FBE2093600082E090E00E9478
:10F1D0007FFA4C01A12CB12C81149104A104B1043B
:10F1E00009F4FFCFA895C12CD12C7601D701C60117
:10F1F000880D991DAA1DBB1DABBFFC01C7918C2FAB
:10F200000E9459F88FEFC81AD80AE80AF80AC11103
:10F21000EDCFA89588E10FB6F89480936000109226
:10F2200060000FBE0C940000CF91FF90EF90DF9034
:10F23000CF90BF90AF909F908F900895EF92FF92E4
:10F240000F931F93CF93DF9307B600FCFDCFF9997F
:10F25000FECF23E0FB0180935B0020935700E895ED
:10F260008B019C01A0E0B0E0FF24F394FA01EA0FC7
:10F27000FB1FE080C181D0E0DC2FCC27CE0DD11D5B
:10F2800007B600FCFDCFF999FECF0E01F8012093DF
:10F290005B00F0925700E895112412960E5F1F4F05
:10F2A0002F4F3F4FA115E1E0BE0701F707B600FC65
:10F2B000FDCFF999FECF25E0FB0180935B00209301
:10F2C0005700E89507B600FCFDCFF999FECF81E124
:10F2D00080935700E895CDB7DEB7E6E00C9470FA5E
:10F2E000A0E0B1E0E6E7F9EF0C9450FA2FE088E1F6
:10F2F00090E00FB6F894A895809360000FBE20931D
:10F3000060000E9425F8811101C0FBCF0E942BF8FC
:10F31000082F10E0102F00270E942BF8082B0E94C6
:10F320002BF8E82EF12CFE2CEE240E942BF8E82A74
:10F330000115110589F080E090E00E947FFA08171E
:10F34000190720F481E00E941EF8FFCFA895B801AC
:10F3500080E090E00E9485FAA895B70182E090E0F5
:10F360000E9485FAA89580E00E941EF8E12CF12CFD
:10F37000A12CB12CA8950E942BF8C82ED12CDC2CE6
:10F38000CC240E942BF8C80ED11C0E9459F8A895D5
:10F390008501C8018A199B098C159D056CF4A895F7
:10F3A0000E942BF8E1E0F0E0EC0FFD1FE00FF11FF1
:10F3B00080830F5F1F4FEDCF011581E0180711F01B
:10F3C000CD28B1F4A895B70180E090E0AE014F5F81
:10F3D0005F4F0E941EF9F39480E50E9459F88F2D2B
:10F3E0000E9459F880E00E9459F8A89500E010E0CA
:10F3F00080E00E941EF85801BDCFA6E0B0E0E3E037
:10F40000FAEF0C9454FA0E940DF80E9448F8A8955F
:10F4100084B1837F84B985B18C6085B91A9905C0A0
:10F4200085E50E941EF80E9470F91B9905C082E5CF
:10F430000E941EF80E9483F886E0E0E0F1E0DE0121
:10F44000119601900D928A95E1F781E40E941EF8D1
:10F4500082E40E941EF88B810E941EF88E010F5FCD
:10F460001F4F7E0185E0E80EF11C89E40E941EF822
:10F47000F80181918F010E941EF80E151F05A9F752
:10F480000E94D1F880E090E02696E6E00C9470FAB5
:10F490002F923F924F925F926F927F928F929F92A4
:10F4A000AF92BF92CF92DF92EF92FF920F931F9392
:10F4B000CF93DF93CDB7DEB7CA1BDB0B0FB6F89443
:10F4C000DEBF0FBECDBF09942A88398848885F8483
:10F4D0006E847D848C849B84AA84B984C884DF80F4
:10F4E000EE80FD800C811B81AA81B981CE0FD11DD8
:10F4F0000FB6F894DEBF0FBECDBFED010895A8E1B1
:10F50000B0E042E050E00C948DFA0196272F0E9463
:10F510009CFA0C949BFADC01CB01FC01F999FECF1B
:10F5200006C0F2BDE1BDF89A319600B40D9241508B
:10F530005040B8F70895262FF999FECF92BD81BDAE
:10F54000F89A019700B4021639F01FBA20BD0FB621
:0AF55000F894FA9AF99A0FBE089594
:06F55A0048454C4C4F0037
:040000031000F000F9
:00000001FF
