:020000021000EC
:10F0000014BE88E1809360001092600000C006C2C8
:10F010001092CD008AE08093CC00E8ECF0E0808193
:10F020008D7F808388E18093C90086E08093CA0049
:10F0300008959091C80095FFFCCF8093CE0008956D
:10F040008091C800881F8827881F08958091C80074
:10F0500087FFFCCF8091CE0008958091C80087FF84
:10F0600003C08091CE00F9CF0895A1E0B0E0EBE3BA
:10F07000F8EF0C9443FA182F85E499830E9419F84D
:10F08000E12E9981F92E8701F7018081882359F0BB
:10F0900089E40E9419F88FEFE81AF80AF8018081D4
:10F0A0000E9419F8F0CF0E9419F82196E6E00C941E
:10F0B0005FFA1092C5008AE08093C400E0ECF0E0B3
:10F0C00080818D7F808388E18093C10086E080937A
:10F0D000C20008959091C00095FFFCCF8093C600B8
:10F0E00008958091C000881F8827881F0895809107
:10F0F000C00087FFFCCF8091C60008958091C000BA
:10F1000087FF03C08091C600F9CF0895CF93DF93A6
:10F11000EC018991882319F00E946AF8FACF0E94C5
:10F120006AF8DF91CF9108952FE088E190E00FB663
:10F13000F894A895809360000FBE209360000E9411
:10F1400026F8882E912CA12CB12CB82CAA24992415
:10F1500088240E9426F8D82F0E9426F8C82F0E94E3
:10F1600026F8AD2A882A9C2AA8950E9426F8C82E3F
:10F17000D12CE12CF12CFC2CEE24DD24CC240E949B
:10F1800026F8D82F0E9426F8C82F0E9426F8ED2ACC
:10F19000C82ADC2AA895C80CD91CEA1CFB1C8C14B4
:10F1A0009D04AE04BF0468F4ABBEF4018791A8953A
:10F1B0000E9419F8A8958FEF881A980AA80AB80A29
:10F1C000EECFFFCF8F929F92AF92BF92CF92DF92FE
:10F1D000EF92FF92CF932FE088E190E00FB6F89482
:10F1E000A895809360000FBE2093600082E090E0BD
:10F1F0000E946EFA4C01A12CB12C81149104A1043F
:10F20000B10409F4FFCFA895C12CD12C7601D70108
:10F21000C601880D991DAA1DBB1DABBFFC01C7917E
:10F220008C2F0E946AF88FEFC81AD80AE80AF80AE9
:10F23000C111EDCFA89588E10FB6F89480936000D6
:10F24000109260000FBE0C940000CF91FF90EF90E1
:10F25000DF90CF90BF90AF909F908F900895EF92E6
:10F26000FF920F931F93CF93DF9307B600FCFDCF60
:10F27000F999FECF23E0FB0180935B0020935700B8
:10F28000E8958B019C01A0E0B0E0FF24F394FA0123
:10F29000EA0FFB1FE080C181D0E0DC2FCC27CE0D30
:10F2A000D11D07B600FCFDCFF999FECF0E01F80184
:10F2B00020935B00F0925700E895112412960E5FA0
:10F2C0001F4F2F4F3F4FA115E1E0BE0701F707B6D3
:10F2D00000FCFDCFF999FECF25E0FB0180935B0098
:10F2E00020935700E89507B600FCFDCFF999FECFB3
:10F2F00081E180935700E895CDB7DEB7E6E00C9446
:10F300005FFAA0E0B1E0E7E8F9EF0C943FFA2FE0F4
:10F3100088E190E00FB6F894A895809360000FBE46
:10F32000209360000E9420F8811101C0FBCF0E9451
:10F3300026F8082F10E0102F00270E9426F8082B2F
:10F340000E9426F8E82EF12CFE2CEE240E9426F8CE
:10F35000E82A0115110589F080E090E00E946EFA1C
:10F360000817190720F481E00E9419F8FFCFA8952B
:10F37000B80180E090E00E9474FAA895B70182E09D
:10F3800090E00E9474FAA89580E00E9419F8E12CA0
:10F39000F12CA12CB12CA8950E9426F8C82ED12CB6
:10F3A000DC2CCC240E9426F8C80ED11C0E946AF8DE
:10F3B000A8958501C8018A199B098C159D056CF4D7
:10F3C000A8950E9426F8E1E0F0E0EC0FFD1FE00FA9
:10F3D000F11F80830F5F1F4FEDCF011581E01807EC
:10F3E00011F0CD28B1F4A895B70180E090E0AE010E
:10F3F0004F5F5F4F0E942FF9F39480E50E946AF8F7
:10F400008F2D0E946AF880E00E946AF8A89500E0BB
:10F4100010E080E00E9419F85801BDCF0E9408F862
:10F420000E9459F8A89584B1837F84B985B18C6016
:10F4300085B91A9905C085E50E9419F80E9481F9DD
:10F440001B9905C082E50E9419F80E9494F88BE48C
:10F450000E9419F880E091E00E9435F888E490E07D
:10F460000E9435F80E94E2F880E090E008952F9223
:10F470003F924F925F926F927F928F929F92AF9244
:10F48000BF92CF92DF92EF92FF920F931F93CF9391
:10F49000DF93CDB7DEB7CA1BDB0B0FB6F894DEBF28
:10F4A0000FBECDBF09942A88398848885F846E844E
:10F4B0007D848C849B84AA84B984C884DF80EE8098
:10F4C000FD800C811B81AA81B981CE0FD11D0FB6A1
:10F4D000F894DEBF0FBECDBFED010895A8E1B0E006
:10F4E00042E050E00C947CFA0196272F0E948BFAA0
:10F4F0000C948AFADC01CB01FC01F999FECF06C01D
:10F50000F2BDE1BDF89A319600B40D9241505040E1
:10F51000B8F70895262FF999FECF92BD81BDF89ACC
:10F52000019700B4021639F01FBA20BD0FB6F89447
:08F53000FA9AF99A0FBE089542
:0AF53800537472696E672031000001
:040000031000F000F9
:00000001FF
